:020000040800F2
:10000000800600206D0200087502000877020008D3
:10001000790200087B0200087D0200080000000051
:100020000000000000000000000000007F02000847
:100030008102000800000000830200088502000819
:10004000870200088702000887020008870200086C
:10005000870200088702000887020008870200085C
:10006000870200088702000887020008870200084C
:10007000870200088702000887020008870200083C
:10008000870200088702000887020008870200082C
:10009000870200088702000887020008870200081C
:1000A000870200088702000887020008870200080C
:1000B00087020008870200088702000887020008FC
:1000C00087020008870200088702000887020008EC
:1000D00087020008870200088702000887020008DC
:1000E00087020008870200088702000800F002F873
:1000F00000F050F814A696E8000CB244B344DA4578
:1001000001D100F047F8BAE80F000FA696E83000DA
:10011000A5EB040504EB0607AAEB0704A7F101070A
:100120004FEA15154FEA3414A4F10104AC4201D38F
:1001300000F030F813F0010F18BFFB1A43F0010371
:1001400000F001F8DBE718472047000040470000B7
:10015000103A24BF78C878C1FAD8520724BF30C8F3
:1001600030C144BF04680C60704700007047000055
:100170000023002400250026103A28BF78C1FBD8B0
:10018000520728BF30C148BF0B6070471FB51FBD65
:1001900010B510BD00F08DF81146FFF7F7FF00F025
:1001A00005FF00F0ABF803B4FFF7F2FF03BC00F06B
:1001B000B3F8000070B505460E464FF00A03B5FBD4
:1001C000F3F505FB135404F13004346006F1010625
:1001D000002D00D0F1E74FF02004346000F003F868
:1001E000BDE8704070470A46A6F10106B24208D247
:1001F000137834781470337002F10102A6F101060D
:10020000F4E7704770B505460C4642F2107295420D
:1002100018D24FF47A73B5FBF3F505FB135604F8C7
:10022000015B4FF02E0204F8012B4FF00A02B3FBE2
:10023000F2F3B6FBF3F202FB136604F8012B002E77
:10024000F3D110E04FF02E024FF02A0204F8012BF8
:100250004FF02E0204F8012B04F8012B04F8012BB7
:100260004FF020022270BDE8704070470948804777
:1002700009480047FEE7FEE7FEE7FEE7FEE7FEE788
:10028000FEE7FEE7FEE7FEE704480549054A064BA0
:1002900070470000450F0008ED00000880000020B6
:1002A00080060020800200208002002070477047F6
:1002B0007047754600F02CF8AE4605006946534677
:1002C00020F00700854618B020B5FFF7DDFFBDE838
:1002D00020404FF000064FF000074FF000084FF0AD
:1002E000000BAC46ACE8C009ACE8C009ACE8C009FA
:1002F000ACE8C00921F007018D46704710B50446EF
:10030000AFF300802046BDE81040FFF74CBF00006F
:10031000004870470800002001491820ABBEFEE7E6
:10032000260002007047000082B041F20001C4F2D2
:100330000201086840F480300860FFE741F20000E5
:10034000C4F2020000688003002801D4FFE7F5E74B
:1003500041F20401C4F202010191086820F48030E6
:100360000860086840F480300860086820F4701065
:100370000860086840F44020086041F20001C4F2BF
:100380000201086840F080700860FFE741F2000059
:10039000C4F2020000688001002801D4FFE7F5E7FD
:1003A00042F20001C4F20201086840F01000086047
:1003B00041F20401C4F202010091086820F0F0004B
:1003C0000860086820F4E0600860086840F4806015
:1003D0000860086820F460500860086820F0030096
:1003E0000860086840F002000860FFE741F204007E
:1003F000C4F20200006800F00C00082801D0FFE7FA
:10040000F4E702B07047000081B08DF80300FFE709
:1004100043F20800C4F2010000888007002801D4DC
:10042000FFE7F5E79DF8030043F20C01C4F2010178
:100430000880FFE743F20800C4F2010000880006CC
:10044000002801D5FFE7F5E701B0704780B586B019
:1004500084460898ADF816C0ADF814100492ADF8B3
:100460000E30ADF80C000020ADF80A00BDF80E000B
:10047000ADF80800BDF90E00BDF90C100139484374
:100480000190BDF9160040F20401C2F20001B1F979
:10049000001088421DDAFFE7BDF91400BDF90C1009
:1004A000401A013040F20201C2F20001B1F900101D
:1004B00088420EDAFFE7BDF91600BDF90E100844B8
:1004C000012806DBFFE7BDF91400B0F1FF3F01DCB6
:1004D000FFE7DFE0BDF90E0040F20401C2F20001C7
:1004E000B1F9001088420BDCFFE7BDF90C0040F2C7
:1004F0000201C2F20001B1F90010884201DDFFE7FC
:10050000C8E0BDF91600BDF90E100844013840F2EC
:100510000401C2F20001B1F90010884214DBFFE7C8
:10052000BDF81600BDF80E10014440F20400C2F2FE
:1005300000000288891AADF80A100088BDF816106C
:10054000401AADF80E00FFE7BDF91400BDF90C101C
:10055000401A0130B0F1FF3F12DCFFE7019ABDF90C
:100560000C10BDF91400C0430844BDF9081000FB8D
:1005700011200190BDF814000130ADF80C00FFE728
:10058000BDF91600B0F1FF3F15DCFFE7BDF80E0026
:10059000BDF816100844ADF80E00BDF81600404234
:1005A000ADF80A000198BDF91610401A019000201C
:1005B000ADF81600FFE7BDF9140040F20201C2F2E7
:1005C0000001B1F90010884213DBFFE7BDF80C20F1
:1005D000BDF8141040F20200C2F200000388C91AEC
:1005E000C9431144ADF80C1000880138ADF814006F
:1005F000FFE7BDF80C00BDF81430181A411CBDF817
:100600001600BDF80E200244013AC9B2D2B2C0B2FF
:10061000DBB200F01FFD0020ADF81400FFE7BDF9CC
:100620001400BDF90C10884234DAFFE70020ADF861
:100630001600FFE7BDF91600BDF90E10884217DA63
:10064000FFE70498019900EB4100407800F0C8FBF7
:100650000498019910F8110000F0C2FB01980130D4
:100660000190FFE7BDF816000130ADF81600E1E794
:100670000198BDF90A10084401900198BDF90810CD
:10068000A0EB41000190FFE7BDF814000130ADF888
:100690001400C4E706B080BD10B586B08C4686460F
:1006A00009980899ADF816E0ADF814C08DF813203C
:1006B000ADF81030ADF80E108DF80D00BDF9160034
:1006C00040F20401C2F20001B1F90010884221DABF
:1006D000FFE7BDF9140040F20201C2F20001B1F9D6
:1006E0000010884216DAFFE7BDF916009DF80D10DC
:1006F00001EB81010844013800280BD4FFE7BDF964
:1007000014009DF80D1000EBC1000138B0F1FF3F5F
:1007100001DCFFE798E000200290FFE7029805283F
:1007200000F39280FFE70298052804D1FFE700203C
:100730008DF80C000DE09DF8130000EB800002998D
:10074000014441F2E800C0F60000405C8DF80C0066
:10075000FFE700200190FFE7019807286FDCFFE723
:100760009DF80C00C00760B3FFE79DF80D0001285D
:100770000FD1FFE7BDF8160002990844BDF8141028
:10078000019A1144BDF8102000B209B200F05EF8E1
:1007900016E0BDF8161002989DF80D3000FB03100E
:1007A000BDF81420019901FB0321BDF81020EC468F
:1007B000CCF8002000B209B21A4600F0CDF8FFE7ED
:1007C00033E0BDF90E00BDF9101088422CD0FFE7D0
:1007D0009DF80D0001280FD1FFE7BDF81600029922
:1007E0000844BDF81410019A1144BDF80E2000B25F
:1007F00009B200F02BF816E0BDF8161002989DF82B
:100800000D3000FB0310BDF81420019901FB0321FA
:10081000BDF80E20EC46CCF8002000B209B21A4612
:1008200000F09AF8FFE7FFE7FFE79DF80C004008AB
:100830008DF80C00FFE70198013001908CE7FFE78D
:1008400002980130029069E706B010BD80B582B011
:10085000ADF80600ADF80410ADF80220BDF90600B1
:1008600000281BD4FFE7BDF9060040F20401C2F2E4
:100870000001B1F90010884210DAFFE7BDF9040069
:1008800000280BD4FFE7BDF9040040F20201C2F2D8
:100890000001B1F90010884201DBFFE70CE09DF890
:1008A00006209DF804301046194600F0D3FBBDF831
:1008B000020000F0C1FBFFE702B080BD80B588B048
:1008C000ADF81A00ADF818100592ADF812300020FE
:1008D0000390BDF81800102803DBFFE70020079005
:1008E00036E0FFE70598007878B3FFE7BDF81A0017
:1008F00000EB40004000BDF8181001EB81014900F9
:10090000059A1278BDF91230EE464FF0010CCEF880
:1009100004C04FF0000CCEF800C000B209B2FFF7DF
:10092000BBFE059801300590BDF81A000130ADF806
:100930001A00BDF81A00152803DBFFE7039807909B
:1009400006E0039801300390CCE703980790FFE797
:10095000079808B080BD000080B584B08446069832
:10096000ADF80EC0ADF80C10ADF80A20ADF80830A7
:10097000ADF806009DF807008DF805009DF806000B
:100980008DF80400BDF90E0040F20401C2F200012E
:10099000B1F9001088420BDAFFE7BDF90C0040F214
:1009A0000201C2F20001B1F90010884201DBFFE749
:1009B0006FE0BDF90E00BDF90A100844013840F29D
:1009C0000401C2F20001B1F9001088420BDBFFE71D
:1009D00040F20400C2F200000088BDF80E10401A78
:1009E000ADF80A00FFE7BDF90C00BDF90810084496
:1009F000013840F20201C2F20001B1F90010884250
:100A00000BDBFFE740F20200C2F200000088BDF8F5
:100A10000C10401AADF80800FFE7BDF80E00BDF855
:100A20000A1001444A1EBDF80C10BDF808300B44F2
:100A3000013BD2B2DBB2C0B2C9B200F00BFBBDF8D1
:100A40000800ADF80C00FFE7BDF90C00012820DB21
:100A5000FFE7BDF80A00ADF80E00FFE7BDF90E0094
:100A600001280FDBFFE79DF8050000F0B9F99DF8BC
:100A7000040000F0B5F9FFE7BDF80E000138ADF84D
:100A80000E00EBE7FFE7BDF80C000138ADF80C00F5
:100A9000DAE704B080BD000080B582B0ADF8060092
:100AA00040F20400C2F20000B0F9002040F202005F
:100AB000C2F20000B0F90030BDF8060069460860D7
:100AC00000210846FFF748FF02B080BD80B584B022
:100AD0008DF80F009DF80F000A280AD0FFE79DF857
:100AE0000F000D2805D0FFE79DF80F001B282BD124
:100AF000FFE740F27C00C2F20000016801310160B2
:100B000040F27802C2F20002002111600068102851
:100B100007D3FFE740F27C01C2F200010020086029
:100B2000FFE740F27C00C2F20000018840F20000C2
:100B3000C2F20000B0F9003044F65202C0F60002E2
:100B40000020FFF7BBFE46E040F27800C2F2000052
:100B50000290006800EB4000400040F27C01C2F2CD
:100B60000001096801EB810149009DF80F20EC4666
:100B70000123CCF804300023CCF8003000B209B2D5
:100B800040F2FF73FFF788FD0298016801310160B0
:100B9000006815281ED3FFE740F27800C2F200007B
:100BA00014210160006800EB4000400040F27C012D
:100BB000C2F20001096801EB810149006B46012284
:100BC0005A6000221A6000B209B22A221F23FFF7DE
:100BD00063FDFFE7FFE704B080BD000080B586B08D
:100BE0000590059840F26901C2F200010391FFF7F8
:100BF00009FB039A40F27800C2F20000008840F23C
:100C00007C01C2F20001098840F20003C2F2000335
:100C1000B3F90030FFF752FE00200490FFE704997B
:100C200040F26900C2F20000405C58B1FFE740F2B8
:100C30007801C2F2000108680130086004980130B0
:100C40000490ECE740F27800C2F20000006815283A
:100C50001ED3FFE740F27800C2F2000014210160C9
:100C6000006800EB4000400040F27C01C2F200014D
:100C7000096801EB810149006B4601225A6000229C
:100C80001A6000B209B22A221F23FFF705FDFFE711
:100C900006B080BD80B582B00190FFE70198007872
:100CA00040B1FFE701980078FFF710FF019801308D
:100CB0000190F3E702B080BD80B586B0059005983D
:100CC00040F26901C2F200010391FFF773FA039A3F
:100CD00040F27800C2F20000008840F27C01C2F2CB
:100CE0000001098840F20003C2F20003B3F90030AA
:100CF000FFF7E4FD00200490FFE7049940F269004B
:100D0000C2F20000405C58B1FFE740F27801C2F245
:100D10000001086801300860049801300490ECE795
:100D200040F27800C2F20000006815281ED3FFE7E9
:100D300040F27800C2F2000014210160006800EB6C
:100D40004000400040F27C01C2F20001096801EB62
:100D5000810149006B4601225A6000221A6000B2EC
:100D600009B22A221F23FFF797FCFFE706B080BDD8
:100D700082B0019000910198142804D8FFE70098F0
:100D8000102801D3FFE70CE0019840F27801C2F28D
:100D900000010860009840F27C01C2F20001086086
:100DA000FFE702B07047000080B582B08DF8070001
:100DB00040F60C41C4F201010091086820F00200E5
:100DC0000860086820F0010008609DF80700FFF740
:100DD0001BFB0099086840F00100086002B080BD6C
:100DE00080B582B08DF8070040F60C41C4F20101D5
:100DF0000091086840F002000860086820F00100D7
:100E000008609DF80700FFF7FFFA0099086840F0B6
:100E10000100086002B080BD80B500F001F880BD1F
:100E200084B000200390029041F20001C4F202015C
:100E3000086840F480300860FFE741F20000C4F227
:100E40000200006800F40030029003980130039023
:100E5000FFE702990020019039B9FFE70398B0F548
:100E6000A06018BF01200190FFE70198C00700288B
:100E7000E3D1FFE741F20000C4F202000068800302
:100E8000002803D5FFE70120029002E00020029035
:100E9000FFE70298012851D1FFE742F20001C4F2B6
:100EA0000201086840F010000860086820F00700A0
:100EB0000860086840F00200086041F20401C4F2D2
:100EC000020100910868086008680860086840F43A
:100ED00080600860086820F47C100860086840F4AE
:100EE000E810086041F20001C4F20201086840F015
:100EF00080700860FFE741F20000C4F20200006861
:100F00008001002801D4FFE7F5E741F20401C4F2B3
:100F10000201086820F003000860086840F0020041
:100F20000860FFE741F20400C4F20200006800F02C
:100F30000C00082801D0FFE7F4E700E0FFE704B069
:100F40007047000080B541F20002C4F2020210684E
:100F500040F00100106041F20401C4F2020108688F
:100F60000023CFF6FF031840086010684FF6FF73A8
:100F7000CFF6F66318401060106820F480201060EF
:100F8000086820F4FE00086041F20801C4F2020182
:100F90004FF41F000860FFF73FFF4EF60851CEF2F6
:100FA00000014FF00060086080BD000080B586B091
:100FB000002003900590FFF7B7F944F62400C0F62F
:100FC0000000FFF767FE4FF6FF70FFF765FD69460B
:100FD000A020086041F2E452C0F600022C209F21BC
:100FE0002823FFF733FA0398FFF756FD0398049080
:100FF000FFE704980F281DD8FFE704990020FFF7AA
:10100000B7FE049944F2E470C0F60000029050F874
:101010002100FFF751FE04990B20FFF7A9FE02986B
:10102000049950F82100FFF7D9FDFFE7049801303B
:101030000490DEE7FFE7FEE780B582B0ADF806007A
:101040009DF80700FFF7CCFE9DF80600FFF7C8FEED
:1010500002B080BD80B584B08DF80F008DF80E1001
:101060008DF80D208DF80C302A20FFF79DFE002012
:101070000190FFF7B5FE9DF80F0040F26801C2F243
:101080000001009109780844C0B2FFF7A9FE019859
:10109000FFF7A6FE00999DF80D0009780844C0B23C
:1010A000FFF79EFE2B20FFF77FFE0198FFF798FECB
:1010B0009DF80E0040F27501C2F20001029109781C
:1010C0000844C0B2FFF78CFE0198FFF789FE029931
:1010D0009DF80C0009780844C0B2FFF781FE2C206F
:1010E000FFF762FE04B080BD00000000003E5B4FD1
:1010F0005B3E3E6B4F6B3E1C3E7C3E1C183C7E3C78
:10110000181C577D571C1C5E7F5E1C00183C180085
:10111000FFE7C3E7FF0018241800FFE7DBE7FF3015
:10112000483A060E2629792926407F050507407F83
:1011300005253F5A3CE73C5A7F3E1C1C08081C1CF6
:101140003E7F14227F22145F5F005F5F06097F01EC
:101150007F006689956A606060606094A2FFA294D7
:1011600008047E040810207E201008082A1C0808A5
:101170001C2A08081E101010100C1E0C1E0C3038F3
:101180003E3830060E3E0E06000000000000005FF4
:1011900000000007000700147F147F14242A7F2A10
:1011A00012231308646236495620500008070300D2
:1011B000001C2241000041221C002A1C7F1C2A081E
:1011C000083E080800807030000808080808000081
:1011D00060600020100804023E5149453E00427FF5
:1011E000400072494949462141494D331814127F44
:1011F0001027454545393C4A4949314121110907E4
:101200003649494936464949291E00001400000064
:101210004034000000081422411414141414004136
:1012200022140802015909063E415D594E7C1211F3
:10123000127C7F494949363E414141227F4141412B
:101240003E7F494949417F090909013E41415173A6
:101250007F0808087F00417F41002040413F017F17
:10126000081422417F404040407F021C027F7F04DF
:1012700008107F3E4141413E7F090909063E415128
:10128000215E7F09192946264949493203017F0118
:10129000033F4040403F1F2040201F3F4038403F19
:1012A000631408146303047804036159494D43002F
:1012B0007F4141410204081020004141417F040266
:1012C00001020440404040400003070800205454FD
:1012D00078407F28444438384444442838444428DB
:1012E0007F385454541800087E090218A4A49C782E
:1012F0007F0804047800447D40002040403D007F8A
:101300001028440000417F40007C047804787C0869
:101310000404783844444438FC182424181824243D
:1013200018FC7C08040408485454542404043F4422
:10133000243C4040207C1C2040201C3C4030403C51
:1013400044281028444C9090907C4464544C4400B1
:101350000836410000007700000041360800020115
:101360000204023C2623263C1EA1A161123A404001
:10137000207A38545455592155557941215454787F
:1013800041215554784020545579400C1E52721218
:1013900039555555593954545459395554545800A0
:1013A00000457C410002457D420001457C40F0291A
:1013B0002429F0F0282528F07C5455450020545469
:1013C0007C547C0A097F49324949493232484848AD
:1013D00032324A4848303A4141217A3A42402078F4
:1013E000009DA0A07D39444444393D4040403D3CEF
:1013F00024FF2424487E4943662B2FFC2F2BFF0912
:1014000029F620C0887E0903205454794100004405
:101410007D413048484A32384040227A007A0A0AF0
:10142000727D0D19317D2629292F28262929292663
:1014300030484D4020380808080808080808382FA8
:1014400010C8ACBA2F102834FA00007B0000081432
:101450002A142222142A1408AA005500AAAA55AA5E
:1014600055AA000000FF00101010FF00141414FF14
:10147000001010FF00FF1010F010F0141414FC0006
:101480001414F700FF0000FF00FF1414F404FC1410
:101490001417101F10101F101F1414141F00101009
:1014A00010F0000000001F101010101F101010107E
:1014B000F010000000FF101010101010101010FF9E
:1014C00010000000FF140000FF00FF00001F1017B5
:1014D0000000FC04F414141710171414F404F4009E
:1014E00000FF00F714141414141414F700F7141464
:1014F00014171410101F101F141414F4141010F0EB
:1015000010F000001F101F0000001F14000000FC5E
:10151000140000F010F01010FF10FF141414FF144A
:101520001010101F00000000F010FFFFFFFFFFF081
:10153000F0F0F0F0FFFFFF0000000000FFFF0F0FD2
:101540000F0F0F38444438447C2A2A3E147E02028E
:101550000606027E027E0263554941633844443CDC
:1015600004407E201E2006027E020299A5E7A5996E
:101570001C2A492A1C4C7201724C304A4D4D3030A5
:1015800048784830BC625A463D3E494949007E0190
:1015900001017E2A2A2A2A2A44445F444440514AAF
:1015A000444040444A51400000FF0103E080FF00F6
:1015B0000008086B6B083612362436060F090F0632
:1015C000000018180000001010003040FF0101005A
:1015D0001F01011E00191D1712003C3C3C3C00007D
:1015E00000000000FFFFFFFFFFFFFFFFFFFFFFFF07
:1015F000FFFFFFFFFFFFFFFFFFFFFFFFFFFFFFFFFB
:10160000FFFFFFFFFFFFFFFFFFFFFFFFFFFFFFFFEA
:10161000FFFFFFFFFFFFFFFFFFFFFFFFFFFFFFFFDA
:10162000FFFFFFFFFFFFFFFFFFFFFFFFFFFFFFFFCA
:10163000FFFFFFFFFFFFFFFFFFFFFFFFFFFFFFFFBA
:10164000FFFFFFFFFFFFE4202D6359CEFFFFFFFFE9
:10165000FFFFFFFFFFFFFFFFFFFFFFFFFFFFFFFF9A
:10166000FFFFFFFFFFFFFFFFFFFFFFFFFFFFFFFF8A
:10167000FFFFFFFFFFFFFFFFFFFFFFFFFFFFFFFF7A
:10168000FFFFFFFFFFFFFFFFFFFFFFFFFFFFFFFF6A
:10169000FFFFFFFFFFFFE420E420E420E420E4203C
:1016A000E420E420E420E420E420E420E420E4201A
:1016B000E420E420E420E420E420E420494AAB5A7A
:1016C000108459CEFFFFFFFFFFFFFFFFFFFFFFFF6B
:1016D000FFFFFFFFFFFFFFFFFFFFFFFFFFFFFFFF1A
:1016E000FFFFFFFFFFFFE420E420E420E420E420EC
:1016F000E420E420E420E420E420E420E420E420CA
:10170000E420E420E420E420E420E420E420E420B9
:10171000E420E420AB5A3CE7FFFFFFFFFFFFFFFFA1
:10172000FFFFFFFFFFFFFFFFFFFFFFFFFFFFFFFFC9
:10173000FFFFFFFFFFFFE420E420E420E420E4209B
:10174000E420E420E420E420E420E420E420E42079
:10175000E420E420E420E420E420E420E420E42069
:10176000E420E420E4206629BAD6FFFFFFFFFFFF54
:10177000FFFFFFFFFFFFFFFFFFFFFFFFFFFFFFFF79
:10178000FFFFFFFFFFFFE420E420E420E420E4204B
:10179000E420E420E420E420E420E420E420E42029
:1017A000E420E420E420E420E420E420E420E42019
:1017B000E420E420E420E42066293CE7FFFFFFFF6B
:1017C000FFFFFFFFFFFFFFFFFFFFFFFFFFFFFFFF29
:1017D000FFFFFFFFFFFFE4208E739EF7FFFFFFFF79
:1017E000FFFFFFFFFFFFFFFFFFFFFFFFFFFFFFFF09
:1017F000FFFFFFFFFFFFFFFFFFFFFFFFFFFF59CED0
:1018000075AD2D63E420E420E420AB5AFFFFFFFF19
:10181000FFFFFFFFFFFFFFFFFFFFFFFFFFFFFFFFD8
:10182000FFFFFFFFFFFFC739FFFFFFFFFFFFFFFFC6
:10183000FFFFFFFFFFFFFFFFFFFFFFFFFFFFFFFFB8
:10184000FFFFFFFFFFFFFFFFFFFFFFFFFFFFFFFFA8
:10185000FFFFFFFF39C66629E420E4203CE7FFFFD5
:10186000FFFFFFFFFFFFFFFFFFFFFFFFFFFFFFFF88
:10187000FFFFFFFFFFFFAB5AFFFFFFFFFFFFFFFF71
:10188000FFFFFFFFFFFFFFFFFFFFFFFFFFFFFFFF68
:10189000FFFFFFFFFFFFFFFFFFFFFFFFFFFFFFFF58
:1018A000FFFFFFFFFFFFBAD6E420E420F39CFFFF19
:1018B000FFFFFFFFFFFFFFFFFFFFFFFFFFFFFFFF38
:1018C000FFFFFFFFFFFF1084FFFFFFFFFFFFFFFF92
:1018D000FFFFFFFFFFFFFFFFFFFFFFFFFFFFFFFF18
:1018E000FFFFFFFFFFFFFFFFFFFFFFFFFFFFFFFF08
:1018F000FFFFFFFFFFFFFFFF728CE4202D63FFFF60
:10190000FFFFFFFFFFFFFFFFFFFFFFFFFFFFFFFFE7
:10191000FFFFFFFFFFFFFFFFFFFFFFFFFFFFFFFFD7
:10192000FFFFFFFFFFFFFFFFFFFFFFFFFFFFFFFFC7
:10193000FFFFFFFFFFFFFFFFFFFFFFFFFFFFFFFFB7
:10194000FFFFFFFFFFFFFFFF1CE7E420AB5AFFFF95
:10195000FFFFFFFFFFFFFFFFFFFFFFFFFFFFFFFF97
:10196000FFFFFFFFFFFFFFFFFFFFFFFFFFFFFFFF87
:10197000FFFFFFFFFFFFFFFFFFFFFFFFFFFFFFFF77
:10198000FFFFFFFFFFFFFFFFFFFFFFFFFFFFFFFF67
:10199000FFFFFFFFFFFFFFFFFFFFC739494AFFFFC0
:1019A000FFFFFFFFFFFFFFFFFFFFFFFFFFFFFFFF47
:1019B000FFFFFFFFFFFFFFFFFFFFFFFFFFFFFFFF37
:1019C000FFFFFFFFFFFFFFFFFFFFFFFFFFFFFFFF27
:1019D000FFFFFFFFFFFFFFFFFFFFFFFFFFFFFFFF17
:1019E000FFFFFFFFFFFFFFFF9EF7E420AB5AFFFF63
:1019F000FFFFFFFFFFFFFFFFFFFFFFFFFFFFFFFFF7
:101A0000FFFFFFFFFFFFFFFFFFFFFFFFFFFFFFFFE6
:101A1000FFFFFFFFFFFFFFFFFFFFFFFFFFFFFFFFD6
:101A2000FFFFFFFFFFFFFFFFFFFFFFFFFFFFFFFFC6
:101A3000FFFFFFFFFFFFFFFF55ADE4207294FFFFA4
:101A4000FFFFFFFFFFFFFFFFFFFFFFFFFFFFFFFFA6
:101A5000FFFFFFFFFFFF75ADFFFFFFFFFFFFFFFF72
:101A6000FFFFFFFFFFFFFFFFFFFFFFFFFFFFFFFF86
:101A7000FFFFFFFFFFFFFFFFFFFFFFFFFFFFFFFF76
:101A8000FFFFFFFFFFFFFFFFAB5AE420BAD6FFFFC7
:101A9000FFFFFFFFFFFFFFFFFFFFFFFFFFFFFFFF56
:101AA000FFFFFFFFFFFFAB5AFFFFFFFFFFFFFFFF3F
:101AB000FFFFFFFFFFFFFFFFFFFFFFFFFFFFFFFF36
:101AC000FFFFFFFFFFFFFFFFFFFFFFFFFFFFFFFF26
:101AD000FFFFFFFFFFFFF39CE420AB5AFFFFFFFF78
:101AE000FFFFFFFFFFFFFFFFFFFFFFFFFFFFFFFF06
:101AF000FFFFFFFFFFFFAB5AFFFFFFFFFFFFFFFFEF
:101B0000FFFFFFFFFFFFFFFFFFFFFFFFFFFFFFFFE5
:101B1000FFFFFFFFFFFFFFFFFFFFFFFFFFFFFFFFD5
:101B2000FFFFFFFFBAD66629E420BAD6FFFFFFFF0A
:101B3000FFFFFFFFFFFFFFFFFFFFFFFFFFFFFFFFB5
:101B4000FFFFFFFFFFFFE420BAD6FFFFFFFFFFFF0D
:101B5000FFFFFFFFFFFFFFFFFFFFFFFFFFFFFFFF95
:101B6000FFFFFFFFFFFFFFFFFFFFFFFFFFFFFFFF85
:101B70009EF77294E420E42075ADFFFFFFFFFFFFA6
:101B8000FFFFFFFFFFFFFFFFFFFFFFFFFFFFFFFF65
:101B9000FFFFFFFFFFFFE42066292D63729472941C
:101BA0007294729472947294729472947294729405
:101BB000729472947294729472947294AB5A494A69
:101BC000E420E4206629D7BDFFFFFFFFFFFFFFFFF2
:101BD000FFFFFFFFFFFFFFFFFFFFFFFFFFFFFFFF15
:101BE000FFFFFFFFFFFFE420E420E420E420E420E7
:101BF000E420E420E420E420E420E420E420E420C5
:101C0000E420E420E420E420E420E420E420E420B4
:101C1000494AF39C9EF7FFFFFFFFFFFFFFFFFFFF17
:101C2000FFFFFFFFFFFFFFFFFFFFFFFFFFFFFFFFC4
:101C3000FFFFFFFFFFFFE420E4201084729475ADE6
:101C400059CE59CE59CE59CE59CE59CE59CE59CE5C
:101C500059CE59CE59CE59CE59CE59CEBAD6FFFF0C
:101C6000FFFFFFFFFFFFFFFFFFFFFFFFFFFFFFFF84
:101C7000FFFFFFFFFFFFFFFFFFFFFFFFFFFFFFFF74
:101C8000FFFFFFFFFFFFE42059CEFFFFFFFFFFFF35
:101C9000FFFFFFFFFFFFFFFFFFFFFFFFFFFFFFFF54
:101CA000FFFFFFFFFFFFFFFFFFFFFFFFFFFFFFFF44
:101CB000FFFFFFFFFFFFFFFFFFFFFFFFFFFFFFFF34
:101CC000FFFFFFFFFFFFFFFFFFFFFFFFFFFFFFFF24
:101CD000FFFFFFFFFFFF494AFFFFFFFFFFFFFFFF7F
:101CE000FFFFFFFFFFFFFFFFFFFFFFFFFFFFFFFF04
:101CF000FFFFFFFFFFFFFFFFFFFFFFFFFFFFFFFFF4
:101D0000FFFFFFFFFFFFFFFFFFFFFFFFFFFFFFFFE3
:101D1000FFFFFFFFFFFFFFFFFFFFFFFFFFFFFFFFD3
:101D2000FFFFFFFFFFFFAB5AFFFFFFFFFFFFFFFFBC
:101D3000FFFFFFFFFFFFFFFFFFFFFFFFFFFFFFFFB3
:101D4000FFFFFFFFFFFFFFFFFFFFFFFFFFFFFFFFA3
:101D5000FFFFFFFFFFFFFFFFFFFFFFFFFFFFFFFF93
:101D6000FFFFFFFFFFFFFFFFFFFFFFFFFFFFFFFF83
:101D7000FFFFFFFFFFFFBAD6FFFFFFFFFFFFFFFFE1
:101D8000FFFFFFFFFFFFFFFFFFFFFFFFFFFFFFFF63
:101D9000FFFFFFFFFFFFFFFFFFFFFFFFFFFFFFFF53
:101DA000FFFFFFFFFFFFFFFFFFFFFFFFFFFFFFFF43
:101DB000FFFFFFFFFFFFFFFFFFFFFFFFFFFFFFFF33
:101DC000FFFFFFFFFFFFFFFFFFFFFFFFFFFFFFFF23
:101DD000FFFFFFFFFFFFFFFFFFFFFFFFFFFFFFFF13
:101DE000FFFFFFFFFFFFFFFFFFFFFFFFFFFFFFFF03
:101DF000FFFFFFFFFFFFFFFFFFFFFFFFFFFFFFFFF3
:101E0000FFFFFFFFFFFFFFFFFFFFFFFFFFFFFFFFE2
:101E1000FFFFFFFFFFFFAB5AAB5AAB5A494AE42022
:101E2000C739BAD6FFFFFFFFFFFFFFFFFFFFFFFF2E
:101E3000FFFFFFFFFFFFFFFFFFFFFFFFFFFFFFFFB2
:101E4000FFFFFFFFFFFFFFFFFFFFFFFFFFFFFFFFA2
:101E5000FFFFFFFFFFFFFFFFFFFFFFFFFFFFFFFF92
:101E6000FFFFFFFFFFFFE420E420E4208E733CE748
:101E7000FFFFFFFFFFFFFFFFFFFFFFFFFFFFFFFF72
:101E8000FFFFFFFFFFFFFFFFFFFFFFFFFFFFFFFF62
:101E9000FFFFFFFFFFFFFFFFFFFFFFFFFFFFFFFF52
:101EA000FFFFFFFFFFFFFFFFFFFFFFFFFFFFFFFF42
:101EB000FFFFFFFFFFFFE420AB5AFFFFFFFFFFFF25
:101EC000FFFFFFFFFFFFFFFFFFFFFFFFFFFFFFFF22
:101ED000FFFFFFFFFFFFFFFFFFFFFFFFFFFFFFFF12
:101EE000FFFFFFFFFFFFFFFFFFFF728C59CEFFFFD9
:101EF000FFFFFFFFFFFFFFFFFFFFFFFFFFFFFFFFF2
:101F0000FFFFFFFFFFFFE420AB5AFFFFFFFFFFFFD4
:101F1000FFFFFFFFFFFFFFFFFFFFFFFFFFFFFFFFD1
:101F2000FFFFFFFFFFFFFFFFFFFFFFFFFFFFFFFFC1
:101F3000FFFFFFFFFFFFFFFFFFFF108459CEFFFFF2
:101F4000FFFFFFFFFFFFFFFFFFFFFFFFFFFFFFFFA1
:101F5000FFFFFFFFFFFFE420AB5AFFFFFFFFFFFF84
:101F6000FFFFFFFFFFFFFFFFFFFFFFFFFFFFFFFF81
:101F7000FFFFFFFFFFFFFFFFFFFFFFFFFFFFFFFF71
:101F8000FFFFFFFFFFFFFFFF9EF7662959CEFFFF10
:101F9000FFFFFFFFFFFFFFFFFFFFFFFFFFFFFFFF51
:101FA000FFFFFFFFFFFFE420C73972947294729421
:101FB00072947294729472947294729472947294F1
:101FC00072947294729472947294729472947294E1
:101FD0007294729472948E736629E42059CEFFFF36
:101FE000FFFFFFFFFFFFFFFFFFFFFFFFFFFFFFFF01
:101FF000FFFFFFFFFFFFE420E420E420E420E420D3
:10200000E420E420E420E420E420E420E420E420B0
:10201000E420E420E420E420E420E420E420E420A0
:10202000E420E420E420E420E420E42059CEFFFF73
:10203000FFFFFFFFFFFFFFFFFFFFFFFFFFFFFFFFB0
:10204000FFFFFFFFFFFFE420E420E420E420E42082
:10205000E420E420E420E420E420E420E420E42060
:10206000E420E420E420E420E420E420E420E42050
:10207000E420E420E420E420E420E42059CEFFFF23
:10208000FFFFFFFFFFFFFFFFFFFFFFFFFFFFFFFF60
:10209000FFFFFFFFFFFFE420E420E420E420E42032
:1020A000E420E420E420E420E420E420E420E42010
:1020B000E420E420E420E420E420E420E420E42000
:1020C000E420E420E420E420E420E42059CEFFFFD3
:1020D000FFFFFFFFFFFFFFFFFFFFFFFFFFFFFFFF10
:1020E000FFFFFFFFFFFFE420C739729472947294E0
:1020F00072947294729472947294729472947294B0
:10210000729472947294729472947294729472949F
:102110007294729472947294C739E42059CEFFFF7E
:10212000FFFFFFFFFFFFFFFFFFFFFFFFFFFFFFFFBF
:10213000FFFFFFFFFFFFE420AB5AFFFFFFFFFFFFA2
:10214000FFFFFFFFFFFFFFFFFFFFFFFFFFFFFFFF9F
:10215000FFFFFFFFFFFFFFFFFFFFFFFFFFFFFFFF8F
:10216000FFFFFFFFFFFFFFFF9EF7C73959CEFFFFBD
:10217000FFFFFFFFFFFFFFFFFFFF7FE71E9EBFF791
:10218000FFFFFFFFFFFFE420AB5AFFFFFFFFFFFF52
:10219000FFFFFFFFFFFFFFFFFFFFFFFFFFFFFFFF4F
:1021A000FFFFFFFFFFFFFFFFFFFFFFFFFFFFFFFF3F
:1021B000FFFFFFFFFFFFFFFFFFFF1CE79EF7FFFF93
:1021C000FFFFFFFFFFFFFFFFFFFF7C449B139D7D91
:1021D000FFFFFFFFFFFFE420AB5AFFFFFFFFFFFF02
:1021E000FFFFFFFFFFFFFFFFFFFFFFFFFFFFFFFFFF
:1021F000FFFFFFFFFFFFFFFFFFFFFFFFFFFFFFFFEF
:10220000FFFFFFFFFFFFFFFFFFFFFFFFFFFFFFFFDE
:10221000FFFFFFFFFFFFFFFFFFFF9B139B13BC545C
:10222000FFFFFFFFFFFFE420E4209EF7FFFFFFFF1B
:10223000FFFFFFFFFFFFFFFFFFFFFFFFFFFFFFFFAE
:10224000FFFFFFFFFFFFFFFFFFFFFFFFFFFFFFFF9E
:10225000FFFFFFFFFFFFFFFFFFFFFFFFFFFFFFFF8E
:10226000FFFFFFFFFFFFFFFFFFFF9B139B13BC540C
:10227000FFFFFFFFFFFFE420E420E42010843CE7A1
:10228000FFFFFFFFFFFFFFFFFFFFFFFFFFFFFFFF5E
:10229000FFFFFFFFFFFFFFFFFFFFFFFFFFFFFFFF4E
:1022A000FFFFFFFFFFFFFFFFFFFFFFFFFFFFFFFF3E
:1022B000FFFFFFFFFFFFFFFFFFFF9B139B13FB23AE
:1022C000FFFFFFFFFFFFAB5AAB5AC739E420E42002
:1022D000C739BAD6FFFFFFFFFFFFFFFFFFFFFFFF7A
:1022E000FFFFFFFFFFFFFFFFFFFFFFFFFFFFFFFFFE
:1022F000FFFFFFFFFFFFFFFFFFFFFFFFFFFFFFFFEE
:10230000FFFFFFFFFFFFFFFFFFFF3C349B139B130B
:10231000FFFFFFFFFFFFFFFFFFFFFFFFFFFFFFFFCD
:10232000FFFFFFFFFFFFFFFFFFFFFFFFFFFFFFFFBD
:10233000FFFFFFFFFFFFFFFFFFFFFFFFFFFFFFFFAD
:10234000FFFFFFFFFFFFFFFFFFFFFFFFFFFFFFFF9D
:10235000FFFFFFFFFFFFFFFFFFFFBC549B139B131B
:10236000FEC6FFFFFFFFFFFFFFFFFFFFFFFFFFFFB7
:10237000FFFFFFFFFFFFFFFFFFFFFFFFFFFFFFFF6D
:10238000FFFFFFFFFFFFFFFFFFFFFFFFFFFFFFFF5D
:10239000FFFFFFFFFFFFFFFFFFFFFFFFFFFFFFFF4D
:1023A000FFFFFFFFFFFFFFFFFFFF9D7D9B139B13C1
:1023B0001E9EFFFFFFFFFFFFFFFFFFFFFFFFFFFF6F
:1023C000FFFFFFFFFFFFFFFFFFFFFFFFFFFFFFFF1D
:1023D000FFFFFFFFFFFFFFFFFFFFFFFFFFFFFFFF0D
:1023E000FFFFFFFFFFFFFFFFFFFFFFFFFFFFFFFFFD
:1023F000FFFFFFFFFFFFFFFFFFFF5EAE9B139B137F
:102400003C34FFFFFFFFFFFFFFFFFFFFFFFFFFFF6A
:10241000FFFFFFFFFFFFFFFFFFFFFFFFFFFFFFFFCC
:10242000FFFFFFFFFFFFFFFFFFFFFFFFFFFFFFFFBC
:10243000FFFFFFFFFFFFFFFFFFFFFFFFFFFFFFFFAC
:10244000FFFFFFFFFFFFFFFFFFFFBFF79B139B1384
:102450009B13DD8DFFFFFFFFFFFFFFFFFFFFFFFF70
:10246000FFFFFFFFFFFFFFFFFFFFFFFFFFFFFFFF7C
:10247000FFFFFFFFFFFFFFFFFFFFFFFFFFFFFFFF6C
:10248000FFFFFFFFFFFFFFFFFFFFFFFFFFFFFFFF5C
:10249000FFFFFFFFFFFFFFFFFFFFFFFFFD5C9B1341
:1024A0009B13FB23BFF7FFFFFFFFFFFFFFFFFFFFB4
:1024B000FFFFFFFFFFFFFFFFFFFFFFFFFFFFFFFF2C
:1024C000FFFFFFFFFFFFFFFFFFFFFFFFFFFFFFFF1C
:1024D000FFFFFFFFFFFFFFFFFFFFFFFFFFFFFFFF0C
:1024E000FFFFFFFFFFFFFFFFFFFFFFFFFEC69B1386
:1024F0009B139B13FD64FFFFFFFFFFFFFFFFFFFF29
:10250000FFFFFFFFFFFFFFFFFFFFFFFFFFFFFFFFDB
:10251000FFFFFFFFFFFFFFFFFFFFFFFFFFFFFFFFCB
:10252000FFFFFFFFFFFFFFFFFFFFFFFFFFFFFFFFBB
:10253000FFFFFFFFFFFFFFFFFFFFFFFFFFFFBC5499
:102540009B139B139B139D7DFFFFFFFFFFFFFFFF6F
:10255000FFFFFFFFFFFFFFFFFFFFFFFFFFFFFFFF8B
:10256000FFFFFFFFFFFFFFFFFFFFFFFFFFFFFFFF7B
:10257000FFFFFFFFFFFFFFFFFFFFFFFFFFFFFFFF6B
:10258000FFFFFFFFFFFFFFFFFFFFFFFFFFFF7FE7F3
:102590009B139B139B139B139D7DFFFFFFFFFFFF6F
:1025A000FFFFFFFFFFFFFFFFFFFFFFFFFFFFFFFF3B
:1025B000FFFFFFFFFFFFFFFFFFFFFFFFFFFFFFFF2B
:1025C000FFFFFFFFFFFFFFFFFFFFFFFFFFFFFFFF1B
:1025D000FFFFFFFFFFFFFFFFFFFFFFFFFFFFFFFF0B
:1025E000DD8D9B139B139B139B135D6DFFFFFFFF03
:1025F000FFFFFFFFFFFFFFFFFFFFFFFFFFFFFFFFEB
:10260000FFFFFFFFFFFFFFFFFFFFFFFFFFFFFFFFDA
:10261000FFFFFFFFFFFFFFFFFFFFFFFFFFFFFFFFCA
:10262000FFFFFFFFFFFFFFFFFFFFFFFFFFFFFFFFBA
:10263000FFFF7C449B139B139B139B135EAEFFFF1A
:10264000FFFFFFFFFFFFFFFFFFFFFFFFFFFFFFFF9A
:10265000FFFFFFFFFFFFFFFFFFFFFFFFFFFFFFFF8A
:10266000FFFFFFFFFFFFFFFFFFFFFFFFFFFFFFFF7A
:10267000FFFFFFFFFFFFFFFFFFFFFFFFFFFFFFFF6A
:10268000FFFF3FD79B139B139B139B139B13FEC60C
:10269000FFFFFFFFFFFFFFFFFFFFFFFFFFFFFFFF4A
:1026A000FFFFFFFFFFFFFFFFFFFFFFFFFFFFFFFF3A
:1026B000FFFFFFFFFFFFFFFFFFFFFFFFFFFFFFFF2A
:1026C000FFFFFFFFFFFFFFFFFFFFFFFFFFFFFFFF1A
:1026D000FFFFFFFFDD8D9B139B139B139B133C346C
:1026E000BFF7BFF7FB233C343FD7FFFFFFFFFFFFE0
:1026F000FFFFFFFFFFFFFFFFFFFFFFFFFFFFFFFFEA
:10270000FFFFFFFFFFFFFFFFFFFFFFFFFFFFFFFFD9
:10271000FFFFFFFFFFFFFFFFFFFFFFFFFFFFFFFFC9
:10272000FFFFFFFFBFF7FB239B139B139B139B1321
:102730001E9EFEC69B139B133C34BFF7FFFFFFFF9B
:10274000FFFFFFFFFFFFFFFFFFFFFFFFFFFFFFFF99
:10275000FFFFFFFFFFFFFFFFFFFFFFFFFFFFFFFF89
:10276000FFFFFFFFFFFFFFFFFFFFFFFFFFFFFFFF79
:10277000FFFFFFFFFFFFDD8D9B139B139B139B133D
:102780003C343D6D9B139B139B135EAEFFFFFFFF1D
:10279000FFFFFFFFFFFFFFFFFFFFFFFFFFFFFFFF49
:1027A000FFFFFFFFFFFFFFFFFFFFFFFFFFFFFFFF39
:1027B000FFFFFFFFFFFFFFFFFFFFFFFFFFFFFFFF29
:1027C000FFFFFFFFFFFFBFF7FB239B139B139B1331
:1027D0009B139B139B139B139B13DD8DFFFFFFFF2D
:1027E000FFFFFFFFFFFFFFFFFFFFFFFFFFFFFFFFF9
:1027F000FFFFFFFFFFFFFFFFFFFFFFFFFFFFFFFFE9
:10280000FFFFFFFFFFFFFFFFFFFFFFFFFFFFFFFFD8
:10281000FFFFFFFFFFFFFFFF3D6D9B139B139B130C
:102820009B139B139B139B139B13DD8DFFFFFFFFDC
:10283000FFFFFFFFFFFFFFFFFFFFFFFFFFFFFFFFA8
:10284000FFFFFFFFFFFFFFFFFFFFFFFFFFFFFFFF98
:10285000FFFFFFFFFFFFFFFFFFFFFFFFFFFFFFFF88
:10286000FFFFFFFFFFFFFFFF7FE79B139B139B1300
:102870009B139B139B139B139B135EAEFFFFFFFFEA
:10288000FFFFFFFFFFFFFFFFFFFFFFFFFFFFFFFF58
:10289000FFFFFFFFFFFFFFFFFFFFFFFFFFFFFFFF48
:1028A000FFFFFFFFFFFFFFFFFFFFFFFFFFFFFFFF38
:1028B000FFFFFFFFFFFFFFFFFFFF7C449B139B1306
:1028C0009B139B139B139B139B137FE7FFFFFFFF40
:1028D000FFFFFFFFFFFFFFFFFFFFFFFFFFFFFFFF08
:1028E000FFFFFFFFFFFFFFFFFFFFFFFFFFFFFFFFF8
:1028F000FFFFFFFFFFFFFFFFFFFFFFFFFFFFFFFFE8
:10290000FFFFFFFFFFFFFFFFFFFFDD8D9B139B130B
:102910009B139B139B139B13FD64FFFFFFFFFFFFA4
:10292000FFFFFFFFFFFFFFFFFFFFFFFFFFFFFFFFB7
:10293000FFFFFFFFFFFFFFFFFFFFFFFFFFFFFFFFA7
:10294000FFFFFFFFFFFFFFFFFFFFFFFFFFFFFFFF97
:10295000FFFFFFFFFFFFFFFFFFFFBC549B139B1315
:102960009B139B139B139B139B139B13BC545EAE37
:10297000FFFFFFFFFFFFFFFFFFFFFFFFFFFFFFFF67
:10298000FFFFFFFFFFFFFFFFFFFFFFFFFFFFFFFF57
:10299000FFFFFFFFFFFFFFFFFFFFFFFFFFFFFFFF47
:1029A000FFFFFFFFFFFFFFFFDD8D9B139B139B13BB
:1029B0009B139B139B139B139B139B139B139B13A7
:1029C0003C345EAEFFFFFFFFFFFFFFFFFFFFFFFF97
:1029D000FFFFFFFFFFFFFFFFFFFFFFFFFFFFFFFF07
:1029E000FFFFFFFFFFFFFFFFFFFFFFFFFFFFFFFFF7
:1029F000FFFFFFFFFFFFFFFFFB239B139B139B13B7
:102A00009B139B139B139B139B139B139B139B1356
:102A10009B139B133C34FEC6FFFFFFFFFFFFFFFF2E
:102A2000FFFF3FD7FEC6FEC6BFF7FFFFFFFFFFFF5A
:102A3000FFFFFFFFFFFFFFFFFFFFFFFFFFFFFFFFA6
:102A4000FFFFFFFFFFFFBFF79B139B139B139B131E
:102A50009B139B139B139B139B139B139B139B1306
:102A60009B139B139B139B133C34DD8D5EAE9D7DAE
:102A70003C349B139B139B139B131E9EFFFFFFFF76
:102A8000FFFFFFFFFFFFFFFFFFFFFFFFFFFFFFFF56
:102A9000FFFFFFFFFFFFFEC69B139B139B139B13C0
:102AA0009B139B139B139B139B139B139B139B13B6
:102AB0009B139B139B139B139B139B139B139B13A6
:102AC0009B139B139B139B139B139B13FD64BFF7DB
:102AD000FFFFFFFFFFFFFFFFFFFFFFFFFFFFFFFF06
:102AE000FFFFFFFFFFFFFEC69B139B139B139B1370
:102AF0009B139B139B139B139B139B139B139B1366
:102B00009B139B139B139B139B139B139B139B1355
:102B10009B139B139B139B139B139B139B13FD6492
:102B2000FFFFFFFFFFFFFFFFFFFFFFFFFFFFFFFFB5
:102B3000FFFFFFFFFFFF1E9E9B139B139B139B1327
:102B40009B139B139B139B139B139B139B139B1315
:102B50009B139B139B139B139B139B139B139B1305
:102B60009B139B139B139B139B139B139B139B13F5
:102B7000FFFFFFFFFFFFFFFFFFFFFFFFFFFFFFFF65
:102B8000FFFFFFFFFFFFDD8D9B139B139B139B1329
:102B90009B139B139B139B139B139B139B139B13C5
:102BA0009B139B139B139B139B139B139B139B13B5
:102BB0009B139B139B139B139B139B139B13BC5443
:102BC000FFFFFFFFFFFFFFFFFFFFFFFFFFFFFFFF15
:102BD000FFFFFFFFFFFF5EAE9B139B139B139B1337
:102BE0009B139B139B139B139B139B139B139B1375
:102BF0009B139B139B139B139B139B139B139B1365
:102C00009B139B139B139B139B139B139B137C4442
:102C1000FFFFFFFFFFFFFFFFFFFFFFFFFFFFFFFFC4
:102C2000FFFFFFFFFFFFDD8D9B139B139B139B1388
:102C30009B139B139B139B139B139B139B139B1324
:102C40009B139B139B139B139B139B139B139B1314
:102C50009B139B139B139B139B139B139B139B1304
:102C6000FFFFFFFFFFFFFFFFFFFFFFFFFFFFFFFF74
:102C7000FFFFFFFFFFFFFEC69B139B139B139B13DE
:102C80009B139B139B139B139B139B139B139B13D4
:102C90009B139B139B139B139B139B139B139B13C4
:102CA0009B139B139B139B139B139B139B13FD6401
:102CB000FFFFFFFFFFFFFFFFFFFFFFFFFFFFFFFF24
:102CC000FFFFFFFFFFFF3FD79B139B139B139B133C
:102CD0009B139B139B139B139B139B139B139B1384
:102CE0009B139B139B139B139B139B139B139B1374
:102CF0009B139B139B139B139B139B135D6DBFF740
:102D0000FFFFFFFFFFFFFFFFFFFFFFFFFFFFFFFFD3
:102D1000FFFFFFFFFFFFFFFF9B139B139B139B1303
:102D20009B139B139B139B139B139B139B139B1333
:102D30009B139B139B139B13FB239D7DDD8D9D7D1F
:102D40003C349B139B139B139B131E9EFFFFFFFFA3
:102D5000FFFFFFFFFFFFFFFFFFFFFFFFFFFFFFFF83
:102D6000FFFFFFFFFFFFFFFFFB239B139B139B1343
:102D70009B139B139B139B139B139B139B139B13E3
:102D80009B139B13FB23DD8DBFF7FFFFFFFFFFFFAF
:102D9000FFFF3FD7FEC6FEC67FE7FFFFFFFFFFFF37
:102DA000FFFFFFFFFFFFFFFFFFFFFFFFFFFFFFFF33
:102DB000FFFFFFFFFFFFFFFF3D6D9B139B139B1367
:102DC0009B139B139B139B139B139B139B139B1393
:102DD0009B135D6D7FE7FFFFFFFFFFFFFFFFFFFF1F
:102DE000FFFFFFFFFFFFFFFFFFFFFFFFFFFFFFFFF3
:102DF000FFFFFFFFFFFFFFFFFFFFFFFFFFFFFFFFE3
:102E0000FFFFFFFFFFFFFFFF7FE77C449B139B1348
:102E10009B139B139B139B139B139B139B135D6D26
:102E20007FE7FFFFFFFFFFFFFFFFFFFFFFFFFFFF4A
:102E3000FFFFFFFFFFFFFFFFFFFFFFFFFFFFFFFFA2
:102E4000FFFFFFFFFFFFFFFFFFFFFFFFFFFFFFFF92
:102E5000FFFFFFFFFFFFFFFFFFFF1E9E9B139B1364
:102E60009B139B139B139B133C34FEC6BFF7FFFFC2
:102E7000FFFFFFFFFFFFFFFFFFFFFFFFFFFFFFFF62
:102E8000FFFFFFFFFFFFFFFFFFFFFFFFFFFFFFFF52
:102E9000FFFFFFFFFFFFFFFFFFFFFFFFFFFFFFFF42
:102EA000FFFFFFFFFFFFFFFFFFFFDD8D9B139B1366
:102EB0009B139B139B139B139B133FD7FFFFFFFF9A
:102EC000FFFFFFFFFFFFFFFFFFFFFFFFFFFFFFFF12
:102ED000FFFFFFFFFFFFFFFFFFFFFFFFFFFFFFFF02
:102EE000FFFFFFFFFFFFFFFFFFFFFFFFFFFFFFFFF2
:102EF000FFFFFFFFFFFFFFFFFFFF7C449B139B13C0
:102F00009B139B139B139B139B139D7DFFFFFFFF45
:102F1000FFFFFFFFFFFFFFFFFFFFFFFFFFFFFFFFC1
:102F2000FFFFFFFFFFFFFFFFFFFFFFFFFFFFFFFFB1
:102F3000FFFFFFFFFFFFFFFFFFFFFFFFFFFFFFFFA1
:102F4000FFFFFFFFFFFFFFFF3FD79B139B139B1369
:102F50009B139B139B139B139B13BC54FFFFFFFFFF
:102F6000FFFFFFFFFFFFFFFFFFFFFFFFFFFFFFFF71
:102F7000FFFFFFFFFFFFFFFFFFFFFFFFFFFFFFFF61
:102F8000FFFFFFFFFFFFFFFFFFFFFFFFFFFFFFFF51
:102F9000FFFFFFFFFFFFFFFF3D6D9B139B139B1385
:102FA0009B139B139B139B139B13BC54FFFFFFFFAF
:102FB000FFFFFFFFFFFFFFFFFFFFFFFFFFFFFFFF21
:102FC000FFFFFFFFFFFFFFFFFFFFFFFFFFFFFFFF11
:102FD000FFFFFFFFFFFFFFFFFFFFFFFFFFFFFFFF01
:102FE000FFFFFFFFFFFF7FE79B139B139B139B13C9
:102FF0009B13FD649B139B139B135D6DFFFFFFFFF2
:10300000FFFFFFFFFFFFFFFFFFFFFFFFFFFFFFFFD0
:10301000FFFFFFFFFFFFFFFFFFFFFFFFFFFFFFFFC0
:10302000FFFFFFFFFFFFFFFFFFFFFFFFFFFFFFFFB0
:10303000FFFFFFFFFFFFDD8D9B139B139B139B1374
:103040003C34BFF79B139B139B135EAEFFFFFFFF48
:10305000FFFFFFFFFFFFFFFFFFFFFFFFFFFFFFFF80
:10306000FFFFFFFFFFFFFFFFFFFFFFFFFFFFFFFF70
:10307000FFFFFFFFFFFFFFFFFFFFFFFFFFFFFFFF60
:10308000FFFFFFFFBFF7FB239B139B139B139B13B8
:103090005EAEFFFF3C349B135D6DFFFFFFFFFFFF44
:1030A000FFFFFFFFFFFFFFFFFFFFFFFFFFFFFFFF30
:1030B000FFFFFFFFFFFFFFFFFFFFFFFFFFFFFFFF20
:1030C000FFFFFFFFFFFFFFFFFFFFFFFFFFFFFFFF10
:1030D000FFFFFFFF9D7D9B139B139B139B13BC5412
:1030E000FFFFFFFF3FD7FEC6FFFFFFFFFFFFFFFF12
:1030F000FFFFFFFFFFFFFFFFFFFFFFFFFFFFFFFFE0
:10310000FFFFFFFFFFFFFFFFFFFFFFFFFFFFFFFFCF
:10311000FFFFFFFFFFFFFFFFFFFFFFFFFFFFFFFFBF
:10312000FFFFFEC69B139B139B139B13FB237FE7A1
:10313000FFFFFFFFFFFFFFFFFFFFFFFFFFFFFFFF9F
:10314000FFFFFFFFFFFFFFFFFFFFFFFFFFFFFFFF8F
:10315000FFFFFFFFFFFFFFFFFFFFFFFFFFFFFFFF7F
:10316000FFFFFFFFFFFFFFFFFFFFFFFFFFFFFFFF6F
:10317000FFFF3C349B139B139B13FB233FD7FFFFA5
:10318000FFFFFFFFFFFFFFFFFFFFFFFFFFFFFFFF4F
:10319000FFFFFFFFFFFFFFFFFFFFFFFFFFFFFFFF3F
:1031A000FFFFFFFFFFFFFFFFFFFFFFFFFFFFFFFF2F
:1031B000FFFFFFFFFFFFFFFFFFFFFFFFFFFFFFFF1F
:1031C000DD8D9B139B139B139B135EAEFFFFFFFFD5
:1031D000FFFFFFFFFFFFFFFFFFFFFFFFFFFFFFFFFF
:1031E000FFFFFFFFFFFFFFFFFFFFFFFFFFFFFFFFEF
:1031F000FFFFFFFFFFFFFFFFFFFFFFFFFFFFFFFFDF
:10320000FFFFFFFFFFFFFFFFFFFFFFFFFFFF7FE766
:10321000FB239B139B139B135EAEFFFFFFFFFFFF80
:10322000FFFFFFFFFFFFFFFFFFFFFFFFFFFFFFFFAE
:10323000FFFFFFFFFFFFFFFFFFFFFFFFFFFFFFFF9E
:10324000FFFFFFFFFFFFFFFFFFFFFFFFFFFFFFFF8E
:10325000FFFFFFFFFFFFFFFFFFFFFFFFFFFF3D6DD2
:103260009B139B139B131E9EFFFFFFFFFFFFFFFFA0
:10327000FFFFFFFFFFFFFFFFFFFFFFFFFFFFFFFF5E
:10328000FFFFFFFFFFFFFFFFFFFFFFFFFFFFFFFF4E
:10329000FFFFFFFFFFFFFFFFFFFFFFFFFFFFFFFF3E
:1032A000FFFFFFFFFFFFFFFFFFFFFFFFBFF79B13C6
:1032B0009B139B13BC54FFFFFFFFFFFFFFFFFFFFAC
:1032C000FFFFFFFFFFFFFFFFFFFFFFFFFFFFFFFF0E
:1032D000FFFFFFFFFFFFFFFFFFFFFFFFFFFFFFFFFE
:1032E000FFFFFFFFFFFFFFFFFFFFFFFFFFFFFFFFEE
:1032F000FFFFFFFFFFFFFFFFFFFFFFFF1E9E9B1370
:103300009B139B137FE7FFFFFFFFFFFFFFFFFFFF05
:10331000FFFFFFFFFFFFFFFFFFFFFFFFFFFFFFFFBD
:10332000FFFFFFFFFFFFFFFFFFFFFFFFFFFFFFFFAD
:10333000FFFFFFFFFFFFFFFFFFFFFFFFFFFFFFFF9D
:10334000FFFFFFFFFFFFFFFFFFFFFFFF7C449B131B
:103350009B139D7DFFFFFFFFFFFFFFFFFFFFFFFFB1
:10336000FFFFFFFFFFFFFFFFFFFFFFFFFFFFFFFF6D
:10337000FFFFFFFFFFFFFFFFFFFFFFFFFFFFFFFF5D
:10338000FFFFFFFFFFFFFFFFFFFFFFFFFFFFFFFF4D
:10339000FFFFFFFFFFFFFFFFFFFFFFFF9B139B13DD
:1033A0009B137FE7FFFFFFFFFFFFFFFFFFFFFFFF15
:1033B000FFFFFFFFFFFFFFFFFFFFFFFFFFFFFFFF1D
:1033C000FFFFFFFFFFFFFFFFFFFFFFFFFFFFFFFF0D
:1033D000FFFFFFFFFFFFFFFFFFFFFFFFFFFFFFFFFD
:1033E000FFFFFFFFFFFFFFFFFFFFFEC69B139B13C7
:1033F000BC54FFFFFFFF75ADFFFFFFFFFFFFFFFFA7
:10340000FFFFFFFFFFFFFFFFFFFFFFFFFFFFFFFFCC
:10341000FFFFFFFFFFFFFFFFFFFFFFFFFFFFFFFFBC
:10342000FFFFFFFFFFFFFFFFFFFF39C63CE7FFFF86
:10343000FFFFFFFFFFFFFFFFFFFF9EB69B139B13E6
:103440009D7DFFFFFFFFAB5AFFFFFFFFFFFFFFFF69
:10345000FFFFFFFFFFFFFFFFFFFFFFFFFFFFFFFF7C
:10346000FFFFFFFFFFFFFFFFFFFFFFFFFFFFFFFF6C
:10347000FFFFFFFFFFFFFFFFFFFF728C59CEFFFF33
:10348000FFFFFFFFFFFFFFFFFFFFDD8D9B139B1380
:10349000DD8DFFFFFFFFAB5AFFFFFFFFFFFFFFFFC9
:1034A000FFFFFFFFFFFFFFFFFFFFFFFFFFFFFFFF2C
:1034B000FFFFFFFFFFFFFFFFFFFFFFFFFFFFFFFF1C
:1034C000FFFFFFFFFFFFFFFFFFFF8E7359CEFFFFE0
:1034D000FFFFFFFFFFFFFFFFFFFFDD8D9B139B1330
:1034E000BEB6FFFFFFFFE420BAD6FFFFFFFFFFFFDE
:1034F000FFFFFFFFFFFFFFFFFFFFFFFFFFFFFFFFDC
:10350000FFFFFFFFFFFFFFFFFFFFFFFFFFFFFFFFCB
:10351000FFFFFFFFFFFFFFFFBAD6662959CEFFFF6F
:10352000FFFFFFFFFFFFFFFFFFFFDD8D9B139B13DF
:10353000FEC6FFFFFFFFE420E420494AAB5AAB5A26
:10354000AB5AAB5AAB5AAB5AAB5AAB5AAB5AAB5A53
:10355000AB5AAB5AAB5AAB5AAB5AAB5AAB5AAB5A43
:10356000AB5AAB5AAB5AAB5A6629E42059CEFFFF8F
:10357000FFFFFFFFFFFFFFFFFFFF9EB69B139B13A5
:103580003FD7FFFFFFFFE420E420E420E420E42015
:10359000E420E420E420E420E420E420E420E4200B
:1035A000E420E420E420E420E420E420E420E420FB
:1035B000E420E420E420E420E420E42059CEFFFFCE
:1035C000FFFFFFFFFFFFFFFFFFFF7FE7FB237C44C1
:1035D000FFFFFFFFFFFFE420E420E420E420E420DD
:1035E000E420E420E420E420E420E420E420E420BB
:1035F000E420E420E420E420E420E420E420E420AB
:10360000E420E420E420E420E420E42059CEFFFF7D
:10361000FFFFFFFFFFFFFFFFFFFFFFFFFFFFFFFFBA
:10362000FFFFFFFFFFFFE420E420E420E420E4208C
:10363000E420E420E420E420E420E420E420E4206A
:10364000E420E420E420E420E420E420E420E4205A
:10365000E420E420E420E420E420E42059CEFFFF2D
:10366000FFFFFFFFFFFFFFFFFFFFFFFFFFFFFFFF6A
:10367000FFFFFFFFFFFFE4208E7359CE59CE59CED6
:1036800059CE59CE59CE59CE59CE59CE59CE494A96
:10369000494A59CE59CE59CE59CE59CE59CE59CE86
:1036A00059CE59CE59CED7BD494AE42059CEFFFF55
:1036B000FFFFFFFFFFFFFFFFFFFFFFFFFFFFFFFF1A
:1036C000FFFFFFFFFFFFE4207294FFFFFFFFFFFFFC
:1036D000FFFFFFFFFFFFFFFFFFFFFFFFFFFFAB52FB
:1036E000AB5AFFFFFFFFFFFFFFFFFFFFFFFFFFFFE3
:1036F000FFFFFFFFFFFFFFFF39C6E42059CEFFFFAA
:10370000FFFFFFFFFFFFFFFFFFFFFFFFFFFFFFFFC9
:10371000FFFFFFFFFFFFE4207294FFFFFFFFFFFFAB
:10372000FFFFFFFFFFFFFFFFFFFFFFFFFFFFAB52AA
:10373000AB5AFFFFFFFFFFFFFFFFFFFFFFFFFFFF92
:10374000FFFFFFFFFFFFFFFF39C6E42059CEFFFF59
:10375000FFFFFFFFFFFFFFFFFFFFFFFFFFFFFFFF79
:10376000FFFFFFFFFFFFE4207294FFFFFFFFFFFF5B
:10377000FFFFFFFFFFFFFFFFFFFFFFFFFFFF494AC4
:10378000AB5AFFFFFFFFFFFFFFFFFFFFFFFFFFFF42
:10379000FFFFFFFFFFFFFFFF39C6E42059CEFFFF09
:1037A000FFFFFFFFFFFFFFFFFFFFFFFFFFFFFFFF29
:1037B000FFFFFFFFFFFFE4207294FFFFFFFFFFFF0B
:1037C000FFFFFFFFFFFFFFFFFFFFFFFF9EF7E4206C
:1037D000E4209EF7FFFFFFFFFFFFFFFFFFFFFFFF5C
:1037E000FFFFFFFFFFFFFFFF39C6E42059CEFFFFB9
:1037F000FFFFFFFFFFFFFFFFFFFFFFFFFFFFFFFFD9
:10380000FFFFFFFFFFFFE4207294FFFFFFFFFFFFBA
:10381000FFFFFFFFFFFFFFFFFFFFFFFF8E73E420AF
:10382000E4208E73FFFFFFFFFFFFFFFFFFFFFFFF9F
:10383000FFFFFFFFFFFFFFFFD7BDE42059CEFFFFD3
:10384000FFFFFFFFFFFFFFFFFFFFFFFFFFFFFFFF88
:10385000FFFFFFFFFFFFE4202D63FFFFFFFFFFFFE0
:10386000FFFFFFFFFFFF55AD1084C739E420E420C0
:10387000E420E420C7398E7375ADFFFFFFFFFFFF23
:10388000FFFFFFFFFFFFFFFF1084E42059CEFFFF83
:10389000FFFFFFFFFFFFFFFFFFFFFFFFFFFFFFFF38
:1038A000FFFFFFFFFFFFE420E42059CEFFFFFFFFF3
:1038B000FFFFFFFFFFFFBAD659CE59CE59CE59CEE2
:1038C00059CE59CE59CE59CEBAD6FFFFFFFFFFFFD2
:1038D000FFFFFFFFFFFF9EF76629E42059CEFFFFA1
:1038E000FFFFFFFFFFFFFFFFFFFFFFFFFFFFFFFFE8
:1038F000FFFFFFFFFFFFE420E420E4208E7359CE9A
:10390000FFFFFFFFFFFFFFFFFFFFFFFFFFFFFFFFC7
:10391000FFFFFFFFFFFFFFFFFFFFFFFFFFFFFFFFB7
:10392000FFFFFFFFFFFF2D63E420E42059CEFFFFE0
:10393000FFFFFFFFFFFFFFFFFFFFFFFFFFFFFFFF97
:10394000FFFFFFFFFFFF2D63AB5AAB5AAB5AAB5AD9
:103950006629FFFFFFFFFFFFFFFFFFFFFFFFFFFFE6
:10396000FFFFFFFFFFFFFFFFFFFFFFFFFFFFFFFF67
:10397000FFFF9EF7494AE420E420C739BAD6FFFF8B
:10398000FFFFFFFFFFFFFFFFFFFFFFFFFFFFFFFF47
:10399000FFFFFFFFFFFFFFFFFFFFFFFFFFFFFFFF37
:1039A000FFFFFFFFFFFFFFFFFFFFFFFFFFFFFFFF27
:1039B000FFFFFFFFFFFFFFFFFFFFFFFFFFFFFFFF17
:1039C0007294662966291084BAD6FFFFFFFFFFFFB5
:1039D000FFFFFFFFFFFFFFFFFFFFFFFFFFFFFFFFF7
:1039E000FFFFFFFFFFFFFFFFFFFFFFFFFFFFFFFFE7
:1039F000FFFFFFFFFFFFFFFFFFFFFFFFFFFFFFFFD7
:103A0000FFFFFFFFFFFFFFFFFFFFFFFFFFFFF39C35
:103A10008E73D7BDFFFFFFFFFFFFFFFFFFFFFFFF1D
:103A2000FFFFFFFFFFFFFFFFFFFFFFFFFFFFFFFFA6
:103A3000FFFFFFFFFFFFFFFFFFFFFFFFFFFFFFFF96
:103A4000FFFFFFFFFFFFFFFFFFFFFFFFFFFFFFFF86
:103A5000FFFFFFFFFFFFFFFFFFFFFFFFFFFFFFFF76
:103A6000FFFFFFFFFFFFFFFFFFFFFFFFFFFFFFFF66
:103A7000FFFFFFFFFFFFFFFFFFFFFFFFFFFFFFFF56
:103A8000FFFFFFFFFFFFFFFFFFFFFFFFFFFFFFFF46
:103A9000FFFFFFFFFFFFFFFFFFFFFFFFFFFFFFFF36
:103AA000FFFFFFFFFFFFFFFFFFFFFFFFFFFFFFFF26
:103AB000FFFFFFFFFFFFFFFFFFFFFFFFFFFFFFFF16
:103AC000FFFFFFFFFFFFFFFFFFFFFFFFFFFFFFFF06
:103AD000FFFFFFFFFFFFFFFFFFFFFFFFFFFFFFFFF6
:103AE000FFFFFFFFFFFFFFFFFFFFBAD675AD729428
:103AF00072947294729475ADBAD6FFFFFFFFFFFF08
:103B0000FFFFFFFFFFFFFFFFFFFFFFFFFFFFFFFFC5
:103B1000FFFFFFFFFFFFFFFFFFFFFFFFFFFFFFFFB5
:103B2000FFFFFFFFFFFFFFFFFFFFFFFFFFFFFFFFA5
:103B3000FFFFFFFFBAD68E736629E420E420E4205D
:103B4000E420E420E420E420E42066298E73BAD641
:103B5000FFFFFFFFFFFFFFFFFFFFFFFFFFFFFFFF75
:103B6000FFFFFFFFFFFFFFFFFFFFFFFFFFFFFFFF65
:103B7000FFFFFFFFFFFFFFFFFFFFFFFFFFFFFFFF55
:103B80001CE7AB5AE420E420E420E420E420E42015
:103B9000E420E420E420E420E420E420E420E42005
:103BA0002D639EF7FFFFFFFFFFFFFFFFFFFFFFFFFC
:103BB000FFFFFFFFFFFFFFFFFFFFFFFFFFFFFFFF15
:103BC000FFFFFFFFFFFFFFFFFFFFFFFFFFFF55AD01
:103BD0006629E420E420E420E420E420E420E4203A
:103BE000E420E420E420E420E420E420E420E420B5
:103BF000E420662959CEFFFFFFFFFFFFFFFFFFFF15
:103C0000FFFFFFFFFFFFFFFFFFFFFFFFFFFFFFFFC4
:103C1000FFFFFFFFFFFFFFFFFFFFFFFF8E73E420AB
:103C2000E420E420E420E420E420E420E420E42074
:103C3000E420E420E420E420E420E420E420E42064
:103C4000E420E420E42075ADFFFFFFFFFFFFFFFF4E
:103C5000FFFFFFFFFFFFFFFFFFFFFFFFFFFFFFFF74
:103C6000FFFFFFFFFFFFFFFFFFFF728CE420E42058
:103C7000E420E42066292D63729459CE59CEFFFFCB
:103C8000FFFFFFFFFFFF59CED7BD1084C739E420E7
:103C9000E420E420E420E42059CEFFFFFFFFFFFFF3
:103CA000FFFFFFFFFFFFFFFFFFFFFFFFFFFFFFFF24
:103CB000FFFFFFFFFFFFFFFF39C6E420E420E42001
:103CC000C73975ADFFFFFFFFFFFFFFFFFFFFFFFFDE
:103CD000FFFFFFFFFFFFFFFFFFFFFFFFFFFF39C6F3
:103CE000AB5AE420E420E42066299EF7FFFFFFFFA3
:103CF000FFFFFFFFFFFFFFFFFFFFFFFFFFFFFFFFD4
:103D0000FFFFFFFFFFFFFFFFC739E4206629F39C99
:103D1000FFFFFFFFFFFFFFFFFFFFFFFFFFFFFFFFB3
:103D2000FFFFFFFFFFFFFFFFFFFFFFFFFFFFFFFFA3
:103D3000FFFFF39CE420E420E4207294FFFFFFFFE8
:103D4000FFFFFFFFFFFFFFFFFFFFFFFFFFFFFFFF83
:103D5000FFFFFFFFFFFF55ADE4206629BAD6FFFF46
:103D6000FFFFFFFFFFFFFFFFFFFFFFFFFFFFFFFF63
:103D7000FFFFFFFFFFFFFFFFFFFFFFFFFFFFFFFF53
:103D8000FFFFFFFF55ADE420E42066299EF7FFFF0B
:103D9000FFFFFFFFFFFFFFFFFFFFFFFFFFFFFFFF33
:103DA000FFFFFFFFFFFF494AE42075ADFFFFFFFF64
:103DB000FFFFFFFFFFFFFFFFFFFFFFFFFFFFFFFF13
:103DC000FFFFFFFFFFFFFFFFFFFFFFFFFFFFFFFF03
:103DD000FFFFFFFFFFFF1084E420E420D7BDFFFFBB
:103DE000FFFFFFFFFFFFFFFFFFFFFFFFFFFFFFFFE3
:103DF000FFFFFFFFFFFFE420AB5AFFFFFFFFFFFFC6
:103E0000FFFFFFFFFFFFFFFFFFFFFFFFFFFFFFFFC2
:103E1000FFFFFFFFFFFFFFFFFFFFFFFFFFFFFFFFB2
:103E2000FFFFFFFFFFFF9EF76629E4208E73FFFF71
:103E3000FFFFFFFFFFFFFFFFFFFFFFFFFFFFFFFF92
:103E4000FFFFFFFF1CE7E4203CE7FFFFFFFFFFFF52
:103E5000FFFFFFFFFFFFFFFFFFFFFFFFFFFFFFFF72
:103E6000FFFFFFFFFFFFFFFFFFFFFFFFFFFFFFFF62
:103E7000FFFFFFFFFFFFFFFF9EF7E420F39CFFFF24
:103E8000FFFFFFFFFFFFFFFFFFFFFFFFFFFFFFFF42
:103E9000FFFFFFFFD7BDE4207294FFFFFFFFFFFF8E
:103EA000FFFFFFFFFFFFFFFFFFFFFFFFFFFFFFFF22
:103EB000FFFFFFFFFFFFFFFFFFFFFFFFFFFFFFFF12
:103EC000FFFFFFFFFFFFFFFFD7BDE4203CE7FFFF41
:103ED000FFFFFFFFFFFFFFFFFFFFFFFFFFFFFFFFF2
:103EE000FFFFFFFFFFFF8E7366299EF7FFFFFFFFB7
:103EF000FFFFFFFFFFFFFFFFFFFFFFFFFFFFFFFFD2
:103F0000FFFFFFFFFFFFFFFFFFFFFFFFFFFFFFFFC1
:103F1000FFFFFFFFFFFFFFFFAB5A8E73FFFFFFFFA7
:103F2000FFFFFFFFFFFFFFFFFFFFFFFFFFFFFFFFA1
:103F3000FFFFFFFFFFFF1CE7E420AB5AFFFFFFFF7F
:103F4000FFFFFFFFFFFFFFFFFFFFFFFFFFFFFFFF81
:103F5000FFFFFFFFFFFFFFFFFFFFFFFFFFFFFFFF71
:103F6000FFFFFFFFFFFFD7BD66293CE7FFFFFFFF15
:103F7000FFFFFFFFFFFFFFFFFFFFFFFFFFFFFFFF51
:103F8000FFFFFFFFFFFFFFFFE739E4202D639EF7F0
:103F9000FFFFFFFFFFFFFFFFFFFFFFFFFFFFFFFF31
:103FA000FFFFFFFFFFFFFFFFFFFFFFFFFFFFFFFF21
:103FB000FFFFFFFFBAD6662975ADFFFFFFFFFFFFCA
:103FC000FFFFFFFFFFFFFFFFFFFFFFFFFFFFFFFF01
:103FD000FFFFFFFFFFFF55ADE420E420E42066294A
:103FE00075ADFFFFFFFFFFFFFFFFFFFFFFFFFFFFBD
:103FF000FFFFFFFFFFFFFFFFFFFFFFFFFFFFFFFFD1
:10400000FFFFBAD6662975ADFFFFFFFFFFFFFFFF79
:10401000FFFFFFFFFFFFFFFFFFFFFFFFFFFFFFFFB0
:10402000FFFFFFFFFFFFE420E420E420E420E42082
:10403000E420C739F39C3CE7FFFFFFFFFFFFFFFFD2
:10404000FFFFFFFFFFFFFFFFFFFFFFFFFFFFFFFF80
:1040500039C6C73975ADFFFFFFFFFFFFFFFFFFFF49
:10406000FFFFFFFFFFFFFFFFFFFFFFFFFFFFFFFF60
:10407000FFFFFFFF2C63FFFFFFFF1CE759CE59CE68
:1040800059CEF39C729459CEFFFFFFFFFFFFFFFF55
:10409000FFFFFFFFFFFFFFFFFFFFFFFFFFFF39C62F
:1040A000AB5ABAD6FFFFFFFFFFFFFFFFFFFFFFFF87
:1040B000FFFFFFFFFFFFFFFFFFFFFFFFFFFFFFFF10
:1040C000FFFFFFFFFFFFFFFFFFFFFFFFFFFFFFFF00
:1040D000FFFFFFFFFFFFFFFFFFFFFFFFFFFFFFFFF0
:1040E000FFFFFFFFFFFFFFFFFFFFFFFFFFFF9EF749
:1040F000FFFFFFFFFFFFFFFFFFFFFFFFFFFFFFFFD0
:10410000FFFFFFFFFFFFFFFFFFFFFFFFFFFFFFFFBF
:10411000FFFFFFFFFFFFFFFFFFFFFFFFFFFFFFFFAF
:10412000FFFFFFFFFFFFFFFFFFFFFFFFFFFFFFFF9F
:10413000FFFFFFFFFFFFFFFFFFFFFFFFFFFFFFFF8F
:10414000FFFFFFFFFFFFFFFFFFFFFFFFFFFFFFFF7F
:10415000FFFFFFFFFFFFFFFFFFFFFFFFFFFFFFFF6F
:10416000FFFFFFFFFFFF75ADFFFFFFFFFFFFFFFF3B
:10417000FFFFFFFFFFFFFFFFFFFFFFFFFFFFFFFF4F
:10418000FFFFFFFFFFFFFFFFFFFFFFFFFFFFFFFF3F
:10419000FFFFFFFFFFFFFFFFFFFF39C63CE7FFFF09
:1041A000FFFFFFFFFFFFFFFFFFFFFFFFFFFFFFFF1F
:1041B000FFFFFFFFFFFFAB5AFFFFFFFFFFFFFFFF08
:1041C000FFFFFFFFFFFFFFFFFFFFFFFFFFFFFFFFFF
:1041D000FFFFFFFFFFFFFFFFFFFFFFFFFFFFFFFFEF
:1041E000FFFFFFFFFFFFFFFFFFFF728C59CEFFFFB6
:1041F000FFFFFFFFFFFFFFFFFFFFFFFFFFFFFFFFCF
:10420000FFFFFFFFFFFFAB5AFFFFFFFFFFFFFFFFB7
:10421000FFFFFFFFFFFFFFFFFFFFFFFFFFFFFFFFAE
:10422000FFFFFFFFFFFFFFFFFFFFFFFFFFFFFFFF9E
:10423000FFFFFFFFFFFFFFFFFFFF8E7359CEFFFF62
:10424000FFFFFFFFFFFFFFFFFFFFFFFFFFFFFFFF7E
:10425000FFFFFFFFFFFFE420BAD6FFFFFFFFFFFFD6
:10426000FFFFFFFFFFFFFFFFFFFFFFFFFFFFFFFF5E
:10427000FFFFFFFFFFFFFFFFFFFFFFFFFFFFFFFF4E
:10428000FFFFFFFFFFFFFFFFBAD6662959CEFFFFF2
:10429000FFFFFFFFFFFFFFFFFFFFFFFFFFFFFFFF2E
:1042A000FFFFFFFFFFFFE420E420AB5AAB5A10846E
:1042B00072947294729472947294729472947294CE
:1042C00072947294729472947294729472947294BE
:1042D00072941084AB5AAB5A6629E42059CEFFFF82
:1042E000FFFFFFFFFFFFFFFFFFFFFFFFFFFFFFFFDE
:1042F000FFFFFFFFFFFFE420E420E420E420E420B0
:10430000E420E420E420E420E420E420E420E4208D
:10431000E420E420E420E420E420E420E420E4207D
:10432000E420E420E420E420E420E42059CEFFFF50
:10433000FFFFFFFFFFFFFFFFFFFFFFFFFFFFFFFF8D
:10434000FFFFFFFFFFFFE420E420E420E420E4205F
:10435000E420E420E420E420E420E420E420E4203D
:10436000E420E420E420E420E420E420E420E4202D
:10437000E420E420E420E420E420E42059CEFFFF00
:10438000FFFFFFFFFFFFFFFFFFFFFFFFFFFFFFFF3D
:10439000FFFFFFFFFFFFE420E420E420E420E4200F
:1043A000E420E420E420E420E420E420E420E420ED
:1043B000E420E420E420E420E420E420E420E420DD
:1043C000E420E420E420E420E420E42059CEFFFFB0
:1043D000FFFFFFFFFFFFFFFFFFFFFFFFFFFFFFFFED
:1043E000FFFFFFFFFFFFE4208E7359CE59CE59CE59
:1043F00059CE59CE59CE59CE59CE59CE59CE494A19
:10440000494A59CE59CE59CE59CE59CE59CE59CE08
:1044100059CE59CE59CE75AD494AE42059CEFFFF49
:10442000FFFFFFFFFFFFFFFFFFFFFFFFFFFFFFFF9C
:10443000FFFFFFFFFFFFE4207294FFFFFFFFFFFF7E
:10444000FFFFFFFFFFFFFFFFFFFFFFFFFFFFAB527D
:10445000AB5AFFFFFFFFFFFFFFFFFFFFFFFFFFFF65
:10446000FFFFFFFFFFFFFFFFD7BDE42059CEFFFF97
:10447000FFFFFFFFFFFFFFFFFFFFFFFFFFFFFFFF4C
:10448000FFFFFFFFFFFFE4207294FFFFFFFFFFFF2E
:10449000FFFFFFFFFFFFFFFFFFFFFFFFFFFFAB522D
:1044A000AB5AFFFFFFFFFFFFFFFFFFFFFFFFFFFF15
:1044B000FFFFFFFFFFFFFFFF39C6E42059CEFFFFDC
:1044C000FFFFFFFFFFFFFFFFFFFFFFFFFFFFFFFFFC
:1044D000FFFFFFFFFFFFE4207294FFFFFFFFFFFFDE
:1044E000FFFFFFFFFFFFFFFFFFFFFFFFFFFF494A47
:1044F000AB5AFFFFFFFFFFFFFFFFFFFFFFFFFFFFC5
:10450000FFFFFFFFFFFFFFFF39C6E42059CEFFFF8B
:10451000FFFFFFFFFFFFFFFFFFFFFFFFFFFFFFFFAB
:10452000FFFFFFFFFFFFE4207294FFFFFFFFFFFF8D
:10453000FFFFFFFFFFFFFFFFFFFFFFFF9EF7E420EE
:10454000E420FFFFFFFFFFFFFFFFFFFFFFFFFFFF75
:10455000FFFFFFFFFFFFFFFF39C6E42059CEFFFF3B
:10456000FFFFFFFFFFFFFFFFFFFFFFFFFFFFFFFF5B
:10457000FFFFFFFFFFFFE4207294FFFFFFFFFFFF3D
:10458000FFFFFFFFFFFFFFFFFFFFFFFF8E73E42032
:10459000E4208E73FFFFFFFFFFFFFFFFFFFFFFFF22
:1045A000FFFFFFFFFFFFFFFFD7BDE42059CEFFFF56
:1045B000FFFFFFFFFFFFFFFFFFFFFFFFFFFFFFFF0B
:1045C000FFFFFFFFFFFFE4202D63FFFFFFFFFFFF63
:1045D000FFFFFFFFFFFF55AD1084C739E420E42043
:1045E000E420E420C739108475ADFFFFFFFFFFFF13
:1045F000FFFFFFFFFFFFFFFF1084E42059CEFFFF06
:10460000FFFFFFFFFFFFFFFFFFFFFFFFFFFFFFFFBA
:10461000FFFFFFFFFFFFE420E420BAD6FFFFFFFF0C
:10462000FFFFFFFFFFFF55AD729472947294729476
:10463000729472947294729475ADFFFFFFFFFFFF46
:10464000FFFFFFFFFFFF9EF7C739E42059CEFFFFB2
:10465000FFFFFFFFFFFFFFFFFFFFFFFFFFFFFFFF6A
:10466000FFFFFFFFFFFFE420E42066291084BAD695
:10467000FFFFFFFFFFFFFFFFFFFFFFFFFFFFFFFF4A
:10468000FFFFFFFFFFFFFFFFFFFFFFFFFFFFFFFF3A
:10469000FFFFFFFFFFFF2D63E420E42059CEFFFF63
:1046A000FFFFFFFFFFFFFFFFFFFFFFFFFFFFFFFF1A
:1046B000FFFFFFFFFFFFAB5AAB5AAB5AAB5A494A59
:1046C0006629FFFFFFFFFFFFFFFFFFFFFFFFFFFF69
:1046D000FFFFFFFFFFFFFFFFFFFFFFFFFFFFFFFFEA
:1046E000FFFF9EF7AB5AE420E420C739BAD6FFFF9C
:1046F000FFFFFFFFFFFFFFFFFFFFFFFFFFFFFFFFCA
:10470000FFFFFFFFFFFFFFFFFFFFFFFFFFFFFFFFB9
:10471000FFFFFFFFFFFFFFFFFFFFFFFFFFFFFFFFA9
:10472000FFFFFFFFFFFFFFFFFFFFFFFFFFFFFFFF99
:10473000F39C662966298E7359CEFFFFFFFFFFFFAA
:10474000FFFFFFFFFFFFFFFFFFFFFFFFFFFFFFFF79
:10475000FFFFFFFFFFFFFFFFFFFFFFFFFFFFFFFF69
:10476000FFFFFFFFFFFFFFFFFFFFFFFFFFFFFFFF59
:10477000FFFFFFFFFFFFFFFFFFFFFFFFFFFFF39CB8
:104780008E73D7BDFFFFFFFFFFFFFFFFFFFFFFFFA0
:10479000FFFFFFFFFFFFFFFFFFFFFFFFFFFFFFFF29
:1047A000FFFFFFFFFFFFFFFFFFFFFFFFFFFFFFFF19
:1047B000FFFFFFFFFFFFFFFFFFFFFFFFFFFFFFFF09
:1047C000FFFFFFFFFFFFFFFFFFFFFFFFFFFFFFFFF9
:1047D000FFFFFFFFFFFFFFFFFFFFFFFFFFFFFFFFE9
:1047E000FFFFFFFF00000000070000006300000063
:1047F000640000008E020000E7030000E8030000F0
:10480000911300000F270000102700004651000000
:10481000FFFF000020940100A61DB70049EF5A07D2
:10482000FFFFFFFF4C6162203720537072696E6793
:1048300020323032330AAD486F6C61210A4269651B
:104840006E76656E69646120616C2045453331394F
:104850004B0020202020202020202020202020204D
:104860002020202020202000884800080000002070
:1048700008000000500100089048000808000020CF
:104880007806000070010008FF07A000800000000B
:040000050800026D80
:00000001FF
